:020000040000FA
:1000000002173675A710E59854045398FB75A5FEA2
:1000100075A46875A3FE75A26875A3FE75A26843F2
:090020009804429822121C982257
:07002B0002183075F49C225D
:1000330002169F75A44075F1FE75D43F75FE0C2220
:10004300021B1AEF540FC454F0FEEF54F0C4540FC4
:100053004EFF543325E025E0FEEF54CC1313543FF9
:0F0063004EFF545525E0FEEF54AAC3134EFF2263
:10007300021CE0E4F5A7758E0275A71075A601F5BD
:10008300A77589024388102202193C2054494D4523
:100093003A202564203A202564203A202564200054
:1000A300204C41503A20202564203A202564203AF0
:1000B3002025642000205A203A2020202564200097
:1000C300205F5F5F5F5F5F5F5F5F5F5F5F5F5F5F7C
:1000D3005F5F5F002053544F505741544348000023
:1000E30020505020C06060104000000000000070ED
:1000F3002070F810F830F8707000000800807070FD
:1001030070F070E0F8F8708870388880888870F034
:1001130070F078F88888888888F87000702000402C
:100123000080000800300080201080600000000084
:1001330000000040000000000000302060000000CC
:100143000000000020505078C8902020202020007C
:100153000000008860881030804008888860601044
:100163000040880888888890808088882010908044
:10017300D88888888888802088888888880840006C
:100183001050002000800008004878800000802084
:1001930000000000000000400000000000004020BC
:1001A30010400000000000002050F88010A04040E4
:1001B30010A820000000089820082050F080108824
:1001C30088606020F820080888888088808080887C
:1001D3002010A080A8C888888888802088888850B4
:1001E300881040801088001070B07068704088B02C
:1001F30060309020D0B070F068B070E08888888854
:1002030088F8402010A80000000000002000507073
:10021300204000401070F800F80010A82010109043
:1002230008F02070780000400010106888F0808883
:10023300F0F0B8F82010C080A8A888F088F07020EB
:100243008888A820502040401000000008C88098EB
:1002530088E088C82010A020A8C8888898C8804053
:100263008888885088108020081000000000000053
:100273000000F80840A8004010A82060000020C833
:10028300202008F80888408808606020F82020A80B
:10029300F8888088808088882010A080889888804B
:1002A300A8A008208888A850204040201000000003
:1002B30078888088F84078882010C020A88888F043
:1002C300788070408888A8207820402010000000A3
:1002D30000000000000050F0989000202020202013
:1002E3000060408820408810888840881060201073
:1002F300004000A88888889080808888209090801B
:1003030088888880909008208850A8882080401092
:100313001000000088888888804008882090A020EA
:1003230088888880088008489850A8500840402052
:10033300100000000000000020005020186800108A
:10034300400000400060807070F870107070407062
:10035300600040080080207088F070E0F8807088AA
:10036300706088F8888870806888F02070205088D2
:1003730020F870087000FC0078F070787040708886
:1003830070609070888870800880F0306820508892
:1003930070F8302060000000000000000000000042
:1003A300000000000000000000000000000000004A
:1003B300000000000000000000000000000000003A
:1003C300000000000000000000000000000000002A
:1003D300000000000000000000000000000000001A
:1003E300000000000000000000000000000000000A
:1003F30000000000000000000000000000000000FA
:1004030000000000000000000000000000000000E9
:1004130000000000000FFFFFFFFFF80000000000D6
:1004230008000000000800000000000800000000B1
:1004330008000000000008000000000800000000A1
:100443000008000000000800000000000800000091
:100453000008000000000008000000000800000081
:100463000000080000000008000000000008000071
:100473000000080000000000080000000008000061
:100483000000000800000000080000000000080051
:100493000000000800000000000800000000080041
:1004A3000000000008000000000800000000000831
:1004B3000000000008000000000008000000000821
:1004C3000000000000080000000008000000000019
:1004D3000800000000080000000000080000000001
:1004E30008000000000008000000000800000000F1
:1004F30000080000000008000000000008000000E1
:1005030000080000000000080000000008000000D0
:1005130000000800000000080000000000080000C0
:1005230000000800000000000800000000080000B0
:1005330000000008000000000800000000000800A0
:100543000000000800000000000800000000080090
:100553000000000008000000000800000000000880
:100563000000000008000000000008000000000870
:100573000000000000080000000008000000000068
:100583000800000000080000000000080000000050
:100593000800000000000800000000080000000040
:1005A3000008000000000800000000000800000030
:1005B3000008000000000008000000000800000020
:1005C3000000080000000008000000000008000010
:1005D3000000080000000000080000000008000000
:1005E30000000008000000000800000000000800F0
:1005F30000000008000000000008000000000800E0
:1006030000000000080000000008000000000008CF
:1006130000000000080000000000080000000008BF
:1006230000000000000800000000080000000000B7
:10063300080000000008000000000008000000009F
:10064300080000000000080000000008000000008F
:10065300000800000000080000000000080000007F
:10066300000800000000000800000000080000006F
:10067300000008000000000800000000000800005F
:10068300000008000000000008000000000800004F
:10069300000000080000000008000000000008003F
:1006A300000000080000000000080000000008002F
:1006B300000000000800000000080000000000081F
:1006C300000000000800000000000800000000080F
:1006D3000000000000080000000008000000000007
:1006E30008000000000800000000000800000000EF
:1006F30008000000000008000000000800000000DF
:1007030000080000000008000000000008000000CE
:1007130000080000000000080000000008000000BE
:1007230000000800000000080000000000080000AE
:10073300000008000000000008000000000800009E
:10074300000000080000000008000000000008008E
:10075300000000080000000000080000000008007E
:10076300000000000800000000080000000000086E
:10077300000000000800000000000800000000085E
:100783000000000000080000000008000000000056
:10079300080000000008000000000008000000003E
:1007A30008000000000008000000000FFFFFFFFF2B
:1007B300F000000000000000000000000000000046
:1007C3000000000000000007FF08310863089508D7
:1007D300C708F9092B095C098E09BF09F00A200A29
:1007E300510A810AB00ADF0B0E0B3C0B6A0B970B05
:1007F300C30BEF0C1B0C460C700C990CC20CEA0DCE
:10080300110D380D5D0D820DA60DC90DEB0E0D0EEC
:100813002D0E4C0E6B0E880EA50EC00EDA0EF40FC5
:100823000C0F230F390F4E0F620F740F860F960FA5
:10083300A50FB30FC00FCC0FD60FDF0FE70FEE0FCF
:10084300F40FF80FFB0FFD0FFE0FFD0FFB0FF80F5B
:10085300F40FEE0FE70FDF0FD60FCC0FC00FB30F60
:10086300A50F960F860F740F620F4E0F390F230FCC
:100873000C0EF40EDA0EC00EA50E880E6B0E4C0E87
:100883002D0E0D0DEB0DC90DA60D820D5D0D380D51
:10089300110CEA0CC20C990C700C460C1B0BEF0BE1
:1008A300C30B970B6A0B3C0B0E0ADF0AB00A810AD3
:1008B300510A2009F009BF098E095C092B08F908C0
:1008C300C708950863083107FF07CC079A0768072D
:1008D30036070406D206A1066F063E060D05DD05A2
:1008E300AC057C054D051E04EF04C10493046604A6
:1008F3003A040E03E203B7038D0364033B031302BD
:10090300EC02C502A0027B02570234021201F0017D
:10091300D001B1019201750158013D012301090084
:10092300F100DA00C400AF009B0089007700670084
:1009330058004A003D00310027001E0016000F003A
:10094300090005000200010000000100020005008B
:1009530009000F0016001E00270031003D004A0069
:1009630058006700770089009B00AF00C400DA00DD
:10097300F101090123013D01580175019201B10102
:10098300D001F0021202340257027B02A002C50218
:10099300EC0313033B0364038D03B703E2040E0468
:1009A3003A0466049304C104EF051E054D057C0556
:1009B300AC05DD060D063E066F06A106D207040749
:1009C300360768079A07CC0FFF0FFF0FFF0FFF0FC4
:1009D300FF0FFF0FFF0FFF0FFF0FFF0FFF0FFF0FA4
:1009E300FF0FFF0FFF0FFF0FFF0FFF0FFF0FFF0F94
:1009F300FF0FFF0FFF0FFF0FFF0FFF0FFF0FFF0F84
:100A0300FF0FFF0FFF0FFF0FFF0FFF0FFF0FFF0F73
:100A1300FF0FFF0FFF0FFF0FFF0FFF0FFF0FFF0F63
:100A2300FF0FFF0FFF0FFF0FFF0FFF0FFF0FFF0F53
:100A3300FF0FFF0FFF0FFF0FFF0FFF0FFF0FFF0F43
:100A4300FF0FFF0FFF0FFF0FFF0FFF0FFF0FFF0F33
:100A5300FF0FFF0FFF0FFF0FFF0FFF0FFF0FFF0F23
:100A6300FF0FFF0FFF0FFF0FFF0FFF0FFF0FFF0F13
:100A7300FF0FFF0FFF0FFF0FFF0FFF0FFF0FFF0F03
:100A8300FF0FFF0FFF0FFF0FFF0FFF0FFF0FFF0FF3
:100A9300FF0FFF0FFF0FFF0FFF0FFF0FFF0FFF0FE3
:100AA300FF0FFF0FFF0FFF0FFF0FFF0FFF0FFF0FD3
:100AB300FF0FFF0FFF0FFF0FFF0FFF0FFF0FFF0FC3
:100AC300FF0FFF0FFF0FFF000000000000000000FA
:100AD3000000000000000000000000000000000013
:100AE3000000000000000000000000000000000003
:100AF30000000000000000000000000000000000F3
:100B030000000000000000000000000000000000E2
:100B130000000000000000000000000000000000D2
:100B230000000000000000000000000000000000C2
:100B330000000000000000000000000000000000B2
:100B430000000000000000000000000000000000A2
:100B53000000000000000000000000000000000092
:100B63000000000000000000000000000000000082
:100B73000000000000000000000000000000000072
:100B83000000000000000000000000000000000062
:100B93000000000000000000000000000000000052
:100BA3000000000000000000000000000000000042
:100BB3000000000000000000000000000000000032
:100BC300000000000000000000000F001F002F00C5
:100BD3003F004F005F006F007F008F009F00AF005A
:100BE300BF00CF00DF00EF00FF010F011F012F0146
:100BF3003F014F015F016F017F018F019F01AF0132
:100C0300BF01CF01DF01EF01FF020F021F022F021D
:100C13003F024F025F026F027F028F029F02AF0209
:100C2300BF02CF02DF02EF02FF030F031F032F03F5
:100C33003F034F035F036F037F038F039F03AF03E1
:100C4300BF03CF03DF03EF03FF040F041F042F04CD
:100C53003F044F045F046F047F048F049F04AF04B9
:100C6300BF04CF04DF04EF04FF050F051F052F05A5
:100C73003F054F055F056F057F058F059F05AF0591
:100C8300BF05CF05DF05EF05FF060F061F062F067D
:100C93003F064F065F066F067F068F069F06AF0669
:100CA300BF06CF06DF06EF06FF070F071F072F0755
:100CB3003F074F075F076F077F078F079F07AF0741
:100CC300BF07CF07DF07EF07FF080F081F082F082D
:100CD3003F084F085F086F087F088F089F08AF0819
:100CE300BF08CF08DF08EF08FF090F091F092F0905
:100CF3003F094F095F096F097F098F099F09AF09F1
:100D0300BF09CF09DF09EF09FF0A0F0A1F0A2F0ADC
:100D13003F0A4F0A5F0A6F0A7F0A8F0A9F0AAF0AC8
:100D2300BF0ACF0ADF0AEF0AFF0B0F0B1F0B2F0BB4
:100D33003F0B4F0B5F0B6F0B7F0B8F0B9F0BAF0BA0
:100D4300BF0BCF0BDF0BEF0BFF0C0F0C1F0C2F0C8C
:100D53003F0C4F0C5F0C6F0C7F0C8F0C9F0CAF0C78
:100D6300BF0CCF0CDF0CEF0CFF0D0F0D1F0D2F0D64
:100D73003F0D4F0D5F0D6F0D7F0D8F0D9F0DAF0D50
:100D8300BF0DCF0DDF0DEF0DFF0E0F0E1F0E2F0E3C
:100D93003F0E4F0E5F0E6F0E7F0E8F0E9F0EAF0E28
:100DA300BF0ECF0EDF0EEF0EFF0F0F0F1F0F2F0F14
:100DB3003F0F4F0F5F0F6F0F7F0F8F0F9F0FAF0F00
:100DC300BF0FCF0FDF0FEF0000001F003F005F00DA
:100DD3007F009F00BF00DF00FF011F013F015F0194
:100DE3007F019F01BF01DF01FF021F023F025F027C
:100DF3007F029F02BF02DF02FF031F033F035F0364
:100E03007F039F03BF03DF03FF041F043F045F044B
:100E13007F049F04BF04DF04FF051F053F055F0533
:100E23007F059F05BF05DF05FF061F063F065F061B
:100E33007F069F06BF06DF06FF071F073F075F0703
:100E43007F079F07BF07DF07FF081F083F085F08EB
:100E53007F089F08BF08DF08FF091F093F095F09D3
:100E63007F099F09BF09DF09FF0A1F0A3F0A5F0ABB
:100E73007F0A9F0ABF0ADF0AFF0B1F0B3F0B5F0BA3
:100E83007F0B9F0BBF0BDF0BFF0C1F0C3F0C5F0C8B
:100E93007F0C9F0CBF0CDF0CFF0D1F0D3F0D5F0D73
:100EA3007F0D9F0DBF0DDF0DFF0E1F0E3F0E5F0E5B
:100EB3007F0E9F0EBF0EDF0EFF0F1F0F3F0F5F0F43
:100EC3007F0F9F0FBF0FDF0FFF0FDF0FBF0F9F0FAF
:100ED3007F0F5F0F3F0F1F0EFF0EDF0EBF0E9F0E24
:100EE3007F0E5F0E3F0E1F0DFF0DDF0DBF0D9F0D1C
:100EF3007F0D5F0D3F0D1F0CFF0CDF0CBF0C9F0C14
:100F03007F0C5F0C3F0C1F0BFF0BDF0BBF0B9F0B0B
:100F13007F0B5F0B3F0B1F0AFF0ADF0ABF0A9F0A03
:100F23007F0A5F0A3F0A1F09FF09DF09BF099F09FB
:100F33007F095F093F091F08FF08DF08BF089F08F3
:100F43007F085F083F081F07FF07DF07BF079F07EB
:100F53007F075F073F071F06FF06DF06BF069F06E3
:100F63007F065F063F061F05FF05DF05BF059F05DB
:100F73007F055F053F051F04FF04DF04BF049F04D3
:100F83007F045F043F041F03FF03DF03BF039F03CB
:100F93007F035F033F031F02FF02DF02BF029F02C3
:100FA3007F025F023F021F01FF01DF01BF019F01BB
:100FB3007F015F013F011F00FF00DF00BF009F00B3
:100FC3007F005F003F001F080008050815082E0872
:100FD3004D0870089208AF08C408CE08C908B408C1
:100FE3008D0856081107BF0767070B06B30664068B
:100FF3002305F705E305EB0611065506B5072F078D
:10100300BC085708F809960A2A0AA90B0D0B4E0BC0
:10101300670B540B150AAB0A180963089407B40647
:10102300CE05EE0520046E03E4038A0366037B0307
:10103300CC0454051105F90702082009450A610B80
:10104300680C4A0CFC0D730DA80D960D3C0C9E0B01
:10105300C20AB10978082606CB0578043E032D029F
:101063005501C00177018001DA0284037604A406E6
:1010730002077D09050A850BEB0D240E210ED30F04
:10108300320F370EE20E360D390BF90A8308EA07E1
:101093004205A0041802BD01A200D4005F0048006D
:1010A30092013A0237037E04FF06A708630A1B0B6B
:1010B300BA0D2D0E600F440FCE0FF70FBD0F210E8B
:1010C3002D0CEB0B6B09C00800063F0494031401BD
:1010D300D200DE00420008003100BB019F02D204AF
:1010E3004505E4079C09580B000C810DC80EC50F7C
:1010F3006D0FB70FA00F2B0E5D0D420BE70A5F08B4
:10110300BD0715057C040602C601C9011D00C80000
:10111300CD012C01DE02DB0414057A06FA088209EC
:10112300FD0B5B0C890D7B0E250E7F0E880E3F0D8C
:10113300AA0CD20BC10A87093407D90687054E04C6
:101143003D036102C302690257028C030303B50422
:1011530097059E06BA07DF08FD0A060AEE0BAB0CDD
:10116300330C840C990C750C1B0B910ADF0A1109C3
:1011730031084B076B069C05E7055404EA04AB04EE
:101183009804B104F2055605D50669070707A808B0
:101193004308D0094A09AA09EE0A140A1C0A0809D5
:1011A300DC099B094C08F40898084007EE07A907D7
:1011B30072074B07360731073B0750076D078F0749
:1011C300B207D107EA07FAE54D2441F8E6054D22B7
:1011D300783E3007027841E475F001121669021671
:1011E300002000EB7F2ED2008018EF540F2490D400
:1011F3003440D4FF30040BEF24BFB41A005003244F
:1012030061FFE54E6002154E0551E5517002055030
:1012130030070D783EE475F001121669EF02165798
:101223000200257403D2078003E4C207F54D8B3E09
:101233008A3F8940E4F54EF550F551E54E60077F4E
:101243002012120580F5754FFFC201C200C202C20F
:1012530003C205C206C2081211D3FF700D30070581
:101263007F00121216AF51AE5022B4255FC2D5C211
:10127300041211D3FF24D0B40A00501A75F00A786F
:101283004E30D50508B6FF0106C6A426F620D504C0
:101293007002D20380D924CFB41A00EF5004C2E500
:1012A300D204021416D20180C6D20080C0D20280BA
:1012B300BCD2D580BAD20580B47F20121205200299
:1012C300077401B54E0040F11211CAFF1212050254
:1012D300123ED208D20680951211CAFB1211CAFA25
:1012E3001211CAF94A4B700679E77A147BFF200280
:1012F3002EE54E602A7E008E8275830012161960D9
:10130300060EEE654F70F0C2D5EBC0E0EAC0E0E92F
:10131300C0E0EE12145DD0E0F9D0E0FAD0E0FB12A9
:101323001600FF60AAEBC0E0EAC0E0E9C0E01212D9
:1013330005D0E02401F9D0E03400FAD0E0FBE54F1A
:101343000460DCD54FD980877BFF7A147959D202A8
:10135300809C791080027908C206C2088008D2D521
:10136300790A8004790AC2D5E54F047002F54FE487
:10137300FAFDFEFF1211CAFC7B082001131211CAE9
:10138300FD7B1030000A1211CAFE1211CAFF7B2026
:10139300EC3382D592D55013C3E43000069FFFE4AB
:1013A3009EFEE42001039DFDE49CFCE4CBF8C20116
:1013B300EC700CCFCECDCCE824F8F870F38017C3D3
:1013C300EF33FFEE33FEED33FDEC33FCEB33FB99F0
:1013D3004002FB0FD8E9EB300105F8D0E0C448B276
:1013E30001C0E00AEC4D4E4F78207B0070C2EAB595
:1013F3004F0040BCC0E012145FD0F0D0E0200104E5
:10140300C4C0E0C4B201C0F01211EED0F0D5F0EBCD
:1014130002123E12167912DB5313555812AC4C12BA
:10142300A84213594F13614413614912C14313670F
:1014330055134B46134B45134B4715075012B02D0D
:1014430012B42E12D72B12B82312D52014F02A125D
:101453007048000012CF3F3F3F00790AA2D5200316
:1014630014300509B910020404B9080104A2D520F7
:1014730006025001042002689202B54E005034C0A7
:10148300E07F203003197F30A20272067205500FED
:101493001214B6C202C206C205C2087F30800F30E2
:1014A3000503E9C0E0121205300503D0E0F9D0E0EE
:1014B300B54ECC3005177F30B9100C1212057F588A
:1014C3003004077F788003B9080312120530020540
:1014D3007F2D0212057F202008F87F2B2006F322A0
:1014E300920280CF286E756C6C2900D2011211CA4A
:1014F3003001F8C201784E30D50108F60212702D82
:10150300504349581211CA2403B405004001E49022
:101513001502931211F6743A1211F6D203754E04A2
:101523000213558E438F448D458B46AB47AA48A97A
:101533004912160070030215FFF54AC3648094A094
:101543004009D3E54A648094FE4003754A20E5458B
:10155300D3947840030215EBAF4AEF3395E0FE7561
:10156300F064E546A42FF582E5F03EF583E5822499
:1015730052F582E583341DF583E493FDE5451313AA
:1015830013541F2544F54CE43543F54B854C82F544
:1015930083C083C082E5455407FCE47EFFA80408AA
:1015A3008005CEC313CE13D8F9F4FFEEF4FEE05E4C
:1015B300FEA3E05FFFD082D083EEF0A3EFF0854C73
:1015C30082854B83C083C082EDFEE4A804088005B6
:1015D300CEC313CE13D8F9FFE04EFEA3E04FFFD0E6
:1015E30082D083EEF0A3EFF074012549F549E43589
:1015F30048F54874062545F54502152E22BB01061C
:1016030089828A83E0225002E722BBFE02E3228919
:10161300828A83E49322BB010CE58229F582E58368
:101623003AF583E0225006E92582F8E622BBFE065E
:10163300E92582F8E222E58229F582E5833AF583FA
:10164300E49322EB9FF5F0EA9E42F0E99D42F0E835
:101653009C45F022BB010689828A83F0225002F75F
:1016630022BBFE01F322FAE6FB0808E6F925F0F6B1
:1016730018E6CA3AF622D083D082F8E49370127443
:101683000193700DA3A393F8740193F5828883E407
:10169300737402936860EFA3A3A380DFC0E0C0F07C
:1016A300C083C082C0D075D000C000C001C002C0DA
:1016B30003C004C005C006C00775A720E5F854F0B1
:1016C300F4440F52F8AF9BEF30E34DE5106031E582
:1016D300A120E02C300A13851482851383E5A3F03F
:1016E3000514E51470070513800385A327D5100D92
:1016F300300C05300902D2FA121C848003851012C3
:10170300E511601430F911300B09A815E2F5A305B2
:1017130015800375A3001511D007D006D005D0049A
:10172300D003D002D001D000D0D0D082D083D0F06B
:10173300D0E032787FE4F6D8FD75817702177D0219
:101743001D00E493A3F8E493A34003F68001F20899
:10175300DFF48029E493A3F85407240CC8C333C4EB
:10176300540F4420C8834004F456800146F6DFE456
:10177300800B01020408102040809017C2E47E0110
:101783009360BCA3FF543F30E509541FFEE493A3C9
:1017930060010ECF54C025E060A840B8E493A3FADB
:1017A300E493A3F8E493A3C8C582C8CAC583CAF067
:1017B300A3C8C582C8CAC583CADFE9DEE780BE0203
:1017C300160000011800011900021A0000C109C126
:1017D3000CC10DC10AC10B0110000111000112005F
:1017E3000115000213000002680000026A000002F3
:1017F300660000027400000276000002700000021E
:101803006E0001026C00000272000050002400010F
:101813000001000100010001000100010001016459
:10182300030262006D0165010260000000C0E0C0B8
:10183300F0C083C082C0D075D000C000C001C00218
:10184300C003C004C005C006C00753C87F53C8FB0C
:10185300E518B401127518027F008519267B02E48E
:10186300FDFC12198F800AE518B40305C2A675188A
:1018730000D007D006D005D004D003D002D001D0C9
:1018830000D0D0D082D083D0F0D0E03253D9BF4340
:10189300D50275E34043A50243A680D294D295D2E4
:1018A30096C2A77C047F157E007D00DDFEDEFADF95
:1018B300F6B296DCF0D2967C027F157E007D00DDC9
:1018C300FEDEFADFF6B296B294DCEED296D2947CC8
:1018D300027F157E007D00DDFEDEFADFF6B294DCCA
:1018E300F0D29422121C70E56F6401456E703FC301
:1018F300E573945CE572648094F640080567E567D8
:1019030070020566E567643C4566700D056BE56B23
:101913007002056AE4F566F567E56B643C456A7039
:101923000D0569E56970020568E4F56AF56B121B3C
:1019330054121B8D121BBC80AEC0E0C083C082C09A
:10194300D075D00853987F0573E57370020572E56F
:10195300632561F561E5623560F56025E0FFE433F9
:10196300FE74CA2FF58274093EF583E493F55E7421
:101973000193F55F75A730AF5F8F848F89AF5E8F5B
:10198300858F8AD0D0D082D083D0E032852610854F
:1019930026118526128F158C138D14EB13920AEBE7
:1019A300A2E1920BAFA775A720200D03121CCF4312
:1019B3009A0453F80F539BEF439A08300C053009F0
:1019C30002C2FA30F915E5116011300B09A815E2CE
:1019D300F5A305158003E4F5A315118FA7228F4303
:1019E3008B448A4589467F80121BEB8F47E543046E
:1019F300FF1200468F48E4FFAB44AA45A9468F82F5
:101A0300758300121619FE74492FF8A6060FBF102E
:101A1300E7E4F559F55AFB7A0079477D14021A2356
:101A23008B5B8A5C895DE51870FC7518018D19E480
:101A3300FFEFC39D5018AB5BAA5CA95D8F827583D2
:101A430000121619FE74002FF8EEF20F80E3AFA711
:101A5300E4F5A775CFFF75CEF4D2A643C8048FA7CC
:101A6300228B3E8A3F89408D41E4F5427E007F14FC
:101A7300121CBE7E007F14853E47853F4885404942
:101A8300AB427D04121526E5412542FF7B017A0016
:101A930079141219E10542E542C3940840CE228528
:101AA300A728121D2B120036121D35121D3F1200DE
:101AB3002E121D49121CF0121D5C121D6A121D6E9E
:101AC300121D63121D53121CAB121C2B12000312A6
:101AD3000076121D1E121C5A8528A7228F298D2AD3
:101AE300E52A6005752AFF8003E4F52A7F80121B2F
:101AF300EB8F2BE52904FF1200468F2CE4FF742D96
:101B03002FF8A62A0FBF10F6E4F53DF53EFB7A0049
:101B1300792B7D14021A23C0E0C0D0056DE56D70EA
:101B230002056CD39404E56C648094804006756C64
:101B330000756D01856874856975856A76856B772F
:101B430085667085677175A70053E6FDD0D0D0E038
:101B530032121C448E288F297BFF7A0079C37D07BC
:101B6300121A647BFF7A0079D77D04121A64121C5F
:101B730044C3EF9529FFEE9528FEC3EF941EEE9420
:101B8300005006E565640160E5227541FF7542007A
:101B930075438E856844856945856A46856B4785A7
:101BA30066488567497B007A0079281212267B00F4
:101BB3007A0079287D30021A647541FF75420075F9
:101BC30043A3857444857545857646857747857037
:101BD300488571497B007A0079281212267B007AA6
:101BE3000079287D3A021A648F5B121C44C3EF9577
:101BF30017FDEE9516FCD3ED94C8EC940040074313
:101C03005B408E168F17AF5B22AB07AA06121C44EC
:101C13008F828E83121C44C3EF9582FFEE9583FE61
:101C2300C3EF9BEE9A40ED22E59154045391FB756B
:101C330095F87594067593F875920643910442914D
:101C430022AFA775A71053E67FAD1BAC1A43E680FE
:101C53008FA7AE04AF052275E68275F30475A7104E
:101C630075EE8275ED04E4F5A775A86022E4F52806
:101C7300E4FDAF28121ADF0528E528C3948040F05D
:101C830022751803AFA7E4F5A775CFFF75CEFC4304
:101C9300C8048FA722BF0A083099FDC29975990D10
:101CA3003099FDC2998F9922AF885388AF758C0103
:101CB300EF5440FEEF54104E428822E4FDEF2DF521
:101CC30082E43EF583E4F00DBD10F222E5A1A2E625
:101CD300920CE5F8540C24FF9209D20D22C0E05374
:101CE300917F051BE51B7002051AD0E03275BB0D11
:101CF30075DF3F75BC0875B98143E88022121AA2CB
:101D0300D2AF12188F121D101218E780FEC2A6D28E
:101D1300B47F0A7E00121C0C021C7075A20B43A137
:101D23004053F8F343F80122E4F5A77597DE75975E
:101D3300AD2275A57175F27D75D5FE2275A6407528
:101D4300A72075CC0822E4F5A775E34075E10222CC
:101D5300E4F5A9E5A930E7FB2275A7307591822246
:101D6300E4F5A775D18022759382227588802200BD
:101D730020505020C0606010400000000000007040
:101D83002070F810F830F870700000080080707050
:101D930070F070E0F8F8708870388880888870F088
:101DA30070F078F88888888888F870007020004080
:101DB30000800008003000802010806000000000D8
:101DC3000000004000000000000030206000000020
:101DD3000000000020505078C890202020202000D0
:101DE3000000008860881030804008888860601098
:101DF3000040880888888890808088882010908098
:101E0300D8888888888880208888888888084000BF
:101E130010500020008000080048788000008020D7
:101E2300000000000000004000000000000040200F
:101E330010400000000000002050F88010A0404037
:101E430010A820000000089820082050F080108877
:101E530088606020F82008088888808880808088CF
:101E63002010A080A8C88888888880208888885007
:101E7300881040801088001070B07068704088B07F
:101E830060309020D0B070F068B070E088888888A7
:101E930088F8402010A800000000000020005070C7
:101EA300204000401070F800F80010A82010109097
:101EB30008F02070780000400010106888F08088D7
:101EC300F0F0B8F82010C080A8A888F088F070203F
:101ED3008888A820502040401000000008C880983F
:101EE30088E088C82010A020A8C8888898C88040A7
:101EF30088888850881080200810000000000000A7
:101F03000000F80840A8004010A82060000020C886
:101F1300202008F80888408808606020F82020A85E
:101F2300F8888088808088882010A080889888809E
:101F3300A8A008208888A850204040201000000056
:101F430078888088F84078882010C020A88888F096
:101F5300788070408888A8207820402010000000F6
:101F630000000000000050F0989000202020202066
:101F730000604088204088108888408810602010C6
:101F8300004000A88888889080808888209090806E
:101F930088888880909008208850A88820804010E6
:101FA3001000000088888888804008882090A0203E
:101FB30088888880088008489850A85008404020A6
:101FC30010000000000000002000502018680010DE
:101FD300400000400060807070F8701070704070B6
:101FE300600040080080207088F070E0F8807088FE
:101FF300706088F8888870806888F0207020508826
:1020030020F870087000FC0078F0707870407088D9
:1020130070609070888870800880F03068205088E5
:1020230070F8302060000000000000000000000095
:10203300000000000000000000000000000000009D
:10204300000000000000000000000000000000008D
:10205300000000000000000000000000000000007D
:10206300000000000000000000000000000000006D
:10207300000000000000000000000000000000005D
:0F2083000000000000000000000000000000004E
:00000001FF
