:020000040000FA
:1000000002216C0226B175A45075F1FE75D40F75EE
:10001000FE0C220226B8E4FFFE1212B6600C0FEFAF
:1000200070010E09E970F20A80EF220221F812260F
:020030009B2211
:100033000220D58F2B8D2CE52C6005752CFF8003BA
:10004300E4F52C7F801224C98F2DE52B04FF1224A5
:10005300588F2EE4FF742F2FF8A62C0FBF10F6E451
:0E006300F53FF540FB7A00792D7D140223D77E
:1000730002260DE4F52AE4FDAF2A120036052AE52F
:070083002AC3948040F02223
:10008B00022301000A456E74657220636861726118
:10009B00637465723A20000A436861726163746528
:1000AB007220656E74657265643A202563000A20C0
:1000BB002020202056616C756520696E204865787C
:1000CB003A20256278002563002562780000000045
:1000DB000000000000000000000000000000000015
:1000EB000000000FFFFFFFFFF800000000000800FA
:1000FB0000000008000000000008000000000800DD
:10010B0000000000080000000008000000000008CC
:10011B0000000000080000000000080000000008BC
:10012B0000000000000800000000080000000000B4
:10013B00080000000008000000000008000000009C
:10014B00080000000000080000000008000000008C
:10015B00000800000000080000000000080000007C
:10016B00000800000000000800000000080000006C
:10017B00000008000000000800000000000800005C
:10018B00000008000000000008000000000800004C
:10019B00000000080000000008000000000008003C
:1001AB00000000080000000000080000000008002C
:1001BB00000000000800000000080000000000081C
:1001CB00000000000800000000000800000000080C
:1001DB000000000000080000000008000000000004
:1001EB0008000000000800000000000800000000EC
:1001FB0008000000000008000000000800000000DC
:10020B0000080000000008000000000008000000CB
:10021B0000080000000000080000000008000000BB
:10022B0000000800000000080000000000080000AB
:10023B00000008000000000008000000000800009B
:10024B00000000080000000008000000000008008B
:10025B00000000080000000000080000000008007B
:10026B00000000000800000000080000000000086B
:10027B00000000000800000000000800000000085B
:10028B000000000000080000000008000000000053
:10029B00080000000008000000000008000000003B
:1002AB00080000000000080000000008000000002B
:1002BB00000800000000080000000000080000001B
:1002CB00000800000000000800000000080000000B
:1002DB0000000800000000080000000000080000FB
:1002EB0000000800000000000800000000080000EB
:1002FB0000000008000000000800000000000800DB
:10030B0000000008000000000008000000000800CA
:10031B0000000000080000000008000000000008BA
:10032B0000000000080000000000080000000008AA
:10033B0000000000000800000000080000000000A2
:10034B00080000000008000000000008000000008A
:10035B00080000000000080000000008000000007A
:10036B00000800000000080000000000080000006A
:10037B00000800000000000800000000080000005A
:10038B00000008000000000800000000000800004A
:10039B00000008000000000008000000000800003A
:1003AB00000000080000000008000000000008002A
:1003BB00000000080000000000080000000008001A
:1003CB00000000000800000000080000000000080A
:1003DB0000000000080000000000080000000008FA
:1003EB0000000000000800000000080000000000F2
:1003FB0008000000000800000000000800000000DA
:10040B0008000000000008000000000800000000C9
:10041B0000080000000008000000000008000000B9
:10042B0000080000000000080000000008000000A9
:10043B000000080000000008000000000008000099
:10044B000000080000000000080000000008000089
:10045B000000000800000000080000000000080079
:10046B000000000800000000000800000000080069
:10047B000000000008000000000FFFFFFFFFF0006E
:10048B000000000000000000000000000000000061
:10049B0000000000000020505020C06060104000A1
:1004AB000000000000702070F810F830F870700039
:1004BB0000080080707070F070E0F8F87088703889
:1004CB008880888870F070F078F88888888888F839
:1004DB007000702000400080000800300080201069
:1004EB0080600000000000000040000000000000E1
:1004FB003020600000000000000020505078C890B1
:10050B0020202020200000000088608810308040D0
:10051B0008888860601000408808888888908080F0
:10052B00888820109080D888888888888020888840
:10053B008888880840001050002000800008004880
:10054B0078800000802000000000000000400000C8
:10055B000000000040201040000000000000205070
:10056B00F88010A0404010A8200000000898200838
:10057B002050F080108888606020F8200808888858
:10058B008088808080882010A080A8C88888888870
:10059B00802088888850881040801088001070B0A8
:1005AB007068704088B060309020D0B070F068B048
:1005BB0070E08888888888F8402010A80000000028
:1005CB00000020005070204000401070F800F80030
:1005DB0010A82010109008F0207078000040001038
:1005EB00106888F08088F0F0B8F82010C080A8A8B8
:1005FB0088F088F070208888A82050204040100098
:10060B00000008C8809888E088C82010A020A8C8DF
:10061B00888898C880408888885088108020081067
:10062B000000000000000000F80840A8004010A8DF
:10063B002060000020C8202008F808884088086047
:10064B006020F82020A8F888808880808888201077
:10065B00A08088988880A8A008208888A85020406F
:10066B0040201000000078888088F840788820109F
:10067B00C020A88888F0788070408888A8207820CF
:10068B0040201000000000000000000050F0989087
:10069B00002020202020006040882040881088887F
:1006AB00408810602010004000A8888888908080C7
:1006BB008888209090808888888090900820885027
:1006CB00A88820804010100000008888888880400F
:1006DB0008882090A0208888888008800848985037
:1006EB00A85008404020100000000000000020002F
:1006FB00502018680010400000400060807070F8B7
:10070B00701070704070600040080080207088F09E
:10071B0070E0F8807088706088F8888870806888CE
:10072B00F0207020508820F870087000FC0078F0E2
:10073B0070787040708870609070888870800880C6
:10074B00F0306820508870F8302060000000000006
:10075B00000000000000000000000000000000008E
:10076B00000000000000000000000000000000007E
:10077B00000000000000000000000000000000006E
:10078B00000000000000000000000000000000005E
:10079B00000000000000000000000000000000004E
:1007AB00000000000000000000000000000000003E
:1007BB00000000000007FF08310863089508C70810
:1007CB00F9092B095C098E09BF09F00A200A510AA5
:1007DB00810AB00ADF0B0E0B3C0B6A0B970BC30B9A
:1007EB00EF0C1B0C460C700C990CC20CEA0D110D86
:1007FB00380D5D0D820DA60DC90DEB0E0D0E2D0ED8
:10080B004C0E6B0E880EA50EC00EDA0EF40F0C0FED
:10081B00230F390F4E0F620F740F860F960FA50F14
:10082B00B30FC00FCC0FD60FDF0FE70FEE0FF40F88
:10083B00F80FFB0FFD0FFE0FFD0FFB0FF80FF40F63
:10084B00EE0FE70FDF0FD60FCC0FC00FB30FA50FB7
:10085B00960F860F740F620F4E0F390F230F0C0E6E
:10086B00F40EDA0EC00EA50E880E6B0E4C0E2D0E6E
:10087B000D0DEB0DC90DA60D820D5D0D380D110C77
:10088B00EA0CC20C990C700C460C1B0BEF0BC30B38
:10089B00970B6A0B3C0B0E0ADF0AB00A810A510A4E
:1008AB002009F009BF098E095C092B08F908C70854
:1008BB00950863083107FF07CC079A0768073607C7
:1008CB000406D206A1066F063E060D05DD05AC0536
:1008DB007C054D051E04EF04C104930466043A0421
:1008EB000E03E203B7038D0364033B031302EC0215
:1008FB00C502A0027B02570234021201F001D001A3
:10090B00B1019201750158013D0123010900F1006C
:10091B00DA00C400AF009B00890077006700580025
:10092B004A003D00310027001E0016000F00090091
:10093B000500020001000000010002000500090093
:10094B000F0016001E00270031003D004A00580022
:10095B006700770089009B00AF00C400DA00F1014B
:10096B00090123013D01580175019201B101D0012B
:10097B00F0021202340257027B02A002C502EC0302
:10098B0013033B0364038D03B703E2040E043A0421
:10099B0066049304C104EF051E054D057C05AC05EB
:1009AB00DD060D063E066F06A106D20704073607C5
:1009BB0068079A07CC0FFF0FFF0FFF0FFF0FFF0FFB
:1009CB00FF0FFF0FFF0FFF0FFF0FFF0FFF0FFF0FAC
:1009DB00FF0FFF0FFF0FFF0FFF0FFF0FFF0FFF0F9C
:1009EB00FF0FFF0FFF0FFF0FFF0FFF0FFF0FFF0F8C
:1009FB00FF0FFF0FFF0FFF0FFF0FFF0FFF0FFF0F7C
:100A0B00FF0FFF0FFF0FFF0FFF0FFF0FFF0FFF0F6B
:100A1B00FF0FFF0FFF0FFF0FFF0FFF0FFF0FFF0F5B
:100A2B00FF0FFF0FFF0FFF0FFF0FFF0FFF0FFF0F4B
:100A3B00FF0FFF0FFF0FFF0FFF0FFF0FFF0FFF0F3B
:100A4B00FF0FFF0FFF0FFF0FFF0FFF0FFF0FFF0F2B
:100A5B00FF0FFF0FFF0FFF0FFF0FFF0FFF0FFF0F1B
:100A6B00FF0FFF0FFF0FFF0FFF0FFF0FFF0FFF0F0B
:100A7B00FF0FFF0FFF0FFF0FFF0FFF0FFF0FFF0FFB
:100A8B00FF0FFF0FFF0FFF0FFF0FFF0FFF0FFF0FEB
:100A9B00FF0FFF0FFF0FFF0FFF0FFF0FFF0FFF0FDB
:100AAB00FF0FFF0FFF0FFF0FFF0FFF0FFF0FFF0FCB
:100ABB00FF0FFF0FFF000000000000000000000010
:100ACB00000000000000000000000000000000001B
:100ADB00000000000000000000000000000000000B
:100AEB0000000000000000000000000000000000FB
:100AFB0000000000000000000000000000000000EB
:100B0B0000000000000000000000000000000000DA
:100B1B0000000000000000000000000000000000CA
:100B2B0000000000000000000000000000000000BA
:100B3B0000000000000000000000000000000000AA
:100B4B00000000000000000000000000000000009A
:100B5B00000000000000000000000000000000008A
:100B6B00000000000000000000000000000000007A
:100B7B00000000000000000000000000000000006A
:100B8B00000000000000000000000000000000005A
:100B9B00000000000000000000000000000000004A
:100BAB00000000000000000000000000000000003A
:100BBB0000000000000000000F001F002F003F008E
:100BCB004F005F006F007F008F009F00AF00BF00E2
:100BDB00CF00DF00EF00FF010F011F012F013F01CD
:100BEB004F015F016F017F018F019F01AF01BF01BA
:100BFB00CF01DF01EF01FF020F021F022F023F02A5
:100C0B004F025F026F027F028F029F02AF02BF0291
:100C1B00CF02DF02EF02FF030F031F032F033F037C
:100C2B004F035F036F037F038F039F03AF03BF0369
:100C3B00CF03DF03EF03FF040F041F042F043F0454
:100C4B004F045F046F047F048F049F04AF04BF0441
:100C5B00CF04DF04EF04FF050F051F052F053F052C
:100C6B004F055F056F057F058F059F05AF05BF0519
:100C7B00CF05DF05EF05FF060F061F062F063F0604
:100C8B004F065F066F067F068F069F06AF06BF06F1
:100C9B00CF06DF06EF06FF070F071F072F073F07DC
:100CAB004F075F076F077F078F079F07AF07BF07C9
:100CBB00CF07DF07EF07FF080F081F082F083F08B4
:100CCB004F085F086F087F088F089F08AF08BF08A1
:100CDB00CF08DF08EF08FF090F091F092F093F098C
:100CEB004F095F096F097F098F099F09AF09BF0979
:100CFB00CF09DF09EF09FF0A0F0A1F0A2F0A3F0A64
:100D0B004F0A5F0A6F0A7F0A8F0A9F0AAF0ABF0A50
:100D1B00CF0ADF0AEF0AFF0B0F0B1F0B2F0B3F0B3B
:100D2B004F0B5F0B6F0B7F0B8F0B9F0BAF0BBF0B28
:100D3B00CF0BDF0BEF0BFF0C0F0C1F0C2F0C3F0C13
:100D4B004F0C5F0C6F0C7F0C8F0C9F0CAF0CBF0C00
:100D5B00CF0CDF0CEF0CFF0D0F0D1F0D2F0D3F0DEB
:100D6B004F0D5F0D6F0D7F0D8F0D9F0DAF0DBF0DD8
:100D7B00CF0DDF0DEF0DFF0E0F0E1F0E2F0E3F0EC3
:100D8B004F0E5F0E6F0E7F0E8F0E9F0EAF0EBF0EB0
:100D9B00CF0EDF0EEF0EFF0F0F0F1F0F2F0F3F0F9B
:100DAB004F0F5F0F6F0F7F0F8F0F9F0FAF0FBF0F88
:100DBB00CF0FDF0FEF0000001F003F005F007F0031
:100DCB009F00BF00DF00FF011F013F015F017F019B
:100DDB009F01BF01DF01FF021F023F025F027F0283
:100DEB009F02BF02DF02FF031F033F035F037F036B
:100DFB009F03BF03DF03FF041F043F045F047F0453
:100E0B009F04BF04DF04FF051F053F055F057F053A
:100E1B009F05BF05DF05FF061F063F065F067F0622
:100E2B009F06BF06DF06FF071F073F075F077F070A
:100E3B009F07BF07DF07FF081F083F085F087F08F2
:100E4B009F08BF08DF08FF091F093F095F097F09DA
:100E5B009F09BF09DF09FF0A1F0A3F0A5F0A7F0AC2
:100E6B009F0ABF0ADF0AFF0B1F0B3F0B5F0B7F0BAA
:100E7B009F0BBF0BDF0BFF0C1F0C3F0C5F0C7F0C92
:100E8B009F0CBF0CDF0CFF0D1F0D3F0D5F0D7F0D7A
:100E9B009F0DBF0DDF0DFF0E1F0E3F0E5F0E7F0E62
:100EAB009F0EBF0EDF0EFF0F1F0F3F0F5F0F7F0F4A
:100EBB009F0FBF0FDF0FFF0FDF0FBF0F9F0F7F0FB7
:100ECB005F0F3F0F1F0EFF0EDF0EBF0E9F0E7F0E2D
:100EDB005F0E3F0E1F0DFF0DDF0DBF0D9F0D7F0D25
:100EEB005F0D3F0D1F0CFF0CDF0CBF0C9F0C7F0C1D
:100EFB005F0C3F0C1F0BFF0BDF0BBF0B9F0B7F0B15
:100F0B005F0B3F0B1F0AFF0ADF0ABF0A9F0A7F0A0C
:100F1B005F0A3F0A1F09FF09DF09BF099F097F0904
:100F2B005F093F091F08FF08DF08BF089F087F08FC
:100F3B005F083F081F07FF07DF07BF079F077F07F4
:100F4B005F073F071F06FF06DF06BF069F067F06EC
:100F5B005F063F061F05FF05DF05BF059F057F05E4
:100F6B005F053F051F04FF04DF04BF049F047F04DC
:100F7B005F043F041F03FF03DF03BF039F037F03D4
:100F8B005F033F031F02FF02DF02BF029F027F02CC
:100F9B005F023F021F01FF01DF01BF019F017F01C4
:100FAB005F013F011F00FF00DF00BF009F007F00BC
:100FBB005F003F001F080008050815082E084D08A4
:100FCB0070089208AF08C408CE08C908B4088D0889
:100FDB0056081107BF0767070B06B3066406230500
:100FEB00F705E305EB0611065506B5072F07BC08F9
:100FFB005708F809960A2A0AA90B0D0B4E0B670B1B
:10100B00540B150AAB0A180963089407B406CE05EE
:10101B00EE0520046E03E4038A0366037B03CC0412
:10102B0054051105F90702082009450A610B680CE4
:10103B004A0CFC0D730DA80D960D3C0C9E0BC20AB1
:10104B00B10978082606CB0578043E032D0255011D
:10105B00C00177018001DA0284037604A40602073B
:10106B007D09050A850BEB0D240E210ED30F320FD4
:10107B00370EE20E360D390BF90A8308EA074205E3
:10108B00A0041802BD01A200D4005F004800920129
:10109B003A0237037E04FF06A708630A1B0BBA0D3F
:1010AB002D0E600F440FCE0FF70FBD0F210E2D0C21
:1010BB00EB0B6B09C00800063F0494031401D2002C
:1010CB00DE00420008003100BB019F02D20445053F
:1010DB00E4079C09580B000C810DC80EC50F6D0F52
:1010EB00B70FA00F2B0E5D0D420BE70A5F08BD0774
:1010FB0015057C040602C601C9011D00C800CD01FF
:10110B002C01DE02DB0414057A06FA088209FD0BBA
:10111B005B0C890D7B0E250E7F0E880E3F0DAA0CE6
:10112B00D20BC10A87093407D90687054E043D0344
:10113B006102C302690257028C030303B5049705CE
:10114B009E06BA07DF08FD0A060AEE0BAB0C330C42
:10115B00840C990C750C1B0B910ADF0A11093108D1
:10116B004B076B069C05E7055404EA04AB04980493
:10117B00B104F2055605D50669070707A808430809
:10118B00D0094A09AA09EE0A140A1C0A0809DC0943
:10119B009B094C08F40898084007EE07A90772074B
:1011AB004B07360731073B0750076D078F07B20711
:1011BB00D107EA07FAE709F608DFFA8046E709F2F2
:1011CB0008DFFA803E88828C83E709F0A3DFFA8080
:1011DB0032E309F608DFFA8078E309F208DFFA80D8
:1011EB007088828C83E309F0A3DFFA806489828A9A
:1011FB0083E0A3F608DFFA805889828A83E0A3F2A2
:10120B0008DFFA804C80D280FA80C680D480698057
:10121B00F28033801080A680EA809A80A880DA80E2
:10122B00E280CA803389828A83ECFAE493A3C8C52F
:10123B0082C8CCC583CCF0A3C8C582C8CCC583CC2F
:10124B00DFE9DEE7800D89828A83E493A3F608DF6A
:10125B00F9ECFAA9F0EDFB2289828A83ECFAE0A380
:10126B00C8C582C8CCC583CCF0A3C8C582C8CCC5C1
:10127B0083CCDFEADEE880DB89828A83E493A3F206
:10128B0008DFF980CC88F0EF60010E4E60C388F068
:10129B00ED2402B4040050B9F582EB2402B404002F
:1012AB0050AF232345822390121073BB0106898212
:1012BB008A83E0225002E722BBFE02E32289828A64
:1012CB0083E49322BB010CE58229F582E5833AF591
:1012DB0083E0225006E92582F8E622BBFE06E925CB
:1012EB0082F8E222E58229F582E5833AF583E493DD
:1012FB002275F008758200EF2FFFEE33FECD33CD54
:10130B00CC33CCC58233C5829BED9AEC99E58298A0
:10131B00400CF582EE9BFEED9AFDEC99FC0FD5F09F
:10132B00D6E4CEFBE4CDFAE4CCF9A88222B800C116
:10133B00B90059BA002DEC8BF084CFCECDFCE5F083
:10134B00CBF97818EF2FFFEE33FEED33FDEC33FCCA
:10135B00EB33FB10D703994004EB99FB0FD8E5E473
:10136B00F9FA227818EF2FFFEE33FEED33FDEC3355
:10137B00FCC933C910D7059BE99A4007EC9BFCE9E4
:10138B009AF90FD8E0E4C9FAE4CCFB2275F010EF20
:10139B002FFFEE33FEED33FDCC33CCC833C810D763
:1013AB00079BEC9AE899400AED9BFDEC9AFCE899B7
:1013BB00F80FD5F0DAE4CDFBE4CCFAE4C8F922EB74
:1013CB009FF5F0EA9E42F0E99D42F0E89C45F02241
:1013DB00EC8EF0A4CCC5F0CCCDF8EFA4CEC5F02D9F
:1013EB00FDE43CFCE8A42EC8C5F03DFDE43CFCEF5D
:1013FB00A4FFE5F028FEE43DFDE43CFC22EF4E604B
:10140B0012EF60010EEDBB010B89828A83F0A3DF23
:10141B00FCDEFA2289F05007F709DFFCA9F022BBAA
:10142B00FEFCF309DFFCA9F022E709F608DFFA80DE
:10143B007BE9D39850F3E92FF9E82FF819E718F661
:10144B00DFFA8068E709F208DFFA806080E38882C0
:10145B008C83E709F0A3DFFA8052E309F608DFFA81
:10146B00804AE9D398500EE92FF9E82FF819E318C1
:10147B00F2DFFA8037E309F208DFFA802F88828CDB
:10148B0083E309F0A3DFFA802389828A83E0A3F642
:10149B0008DFFA801789828A83E493A3F208DFF9C5
:1014AB00800A89828A83E0A3F208DFFA021546805C
:1014BB00B180F980A580C680DC80F18073801080BC
:1014CB008380E98087808780D980E180BC8073D35B
:1014DB00E998EA9C5039E92FF582EA3BF583E82F2E
:1014EB00F8EC3BFC0582D5820215831582E493C888
:1014FB00C582C8CCC583CC0582D5820215831582E3
:10150B00F0C8C582C8CCC583CCDFD9DED7802E8985
:10151B00828A83ECFAE493A3C8C582C8CCC583CC7A
:10152B00F0A3C8C582C8CCC583CCDFE9DEE7800D4C
:10153B0089828A83E493A3F608DFF9ECFAA9F0ED2C
:10154B00FB22D3E998EA9C5038E92FF582EA3BF568
:10155B0083E82FF8EC3BFC0582D5820215831582BC
:10156B00E0C8C582C8CCC583CC0582D58202158361
:10157B001582F0C8C582C8CCC583CCDFDADED88033
:10158B00BC89828A83ECFAE0A3C8C582C8CCC58328
:10159B00CCF0A3C8C582C8CCC583CCDFEADEE8801B
:1015AB009C809888F08E83EF60010E4E608DED2449
:1015BB0002B404005085F582EB2402B4040050E120
:1015CB0023234582AB83239014BA73BB0106898214
:1015DB008A83F0225002F722BBFE01F322FAE6FBCC
:1015EB000808E6F925F0F618E6CA3AF622D083D0B9
:1015FB0082F8E4937012740193700DA3A393F874A3
:10160B000193F5828883E4737402936860EFA3A35C
:10161B00A380DFE538242CF8E6053822782930073B
:10162B0002782CE475F0011215E80212B62000EBDB
:10163B007F2ED2008018EF540F2490D43440D4FF67
:10164B0030040BEF24BFB41A0050032461FFE539BB
:10165B0060021539053CE53C7002053B30070D78FF
:10166B0029E475F0011215E8EF0215D60226BF74B6
:10167B0003D2078003E4C207F5388B298A2A892B0A
:10168B00E4F539F53BF53CE53960077F2012165937
:10169B0080F5753AFFC201C200C202C203C205C285
:1016AB0006C208121627FF700D3007057F001216B1
:1016BB006AAF3CAE3B22B4255FC2D5C204121627DB
:1016CB00FF24D0B40A00501A75F00A783930D505CA
:1016DB0008B6FF0106C6A426F620D5047002D20375
:1016EB0080D924CFB41A00EF5004C2E5D2040218FB
:1016FB006AD20180C6D20080C0D20280BCD2D58013
:10170B00BAD20580B47F201216592002077401B596
:10171B00390040F112161EFF121659021692D2080A
:10172B00D206809512161EFB12161EFA12161EF901
:10173B004A4B7006793B7A197BFF20022EE5396004
:10174B002A7E008E827583001212CF60060EEE6524
:10175B003A70F0C2D5EBC0E0EAC0E0E9C0E0EE12AF
:10176B0018B1D0E0F9D0E0FAD0E0FB1212B6FF606E
:10177B00AAEBC0E0EAC0E0E9C0E0121659D0E024C1
:10178B0001F9D0E03400FAD0E0FBE53A0460DCD597
:10179B003AD980877BFF7A1879ADD202809C791079
:1017AB0080027908C206C2088008D2D5790A800463
:1017BB00790AC2D5E53A047002F53AE4FAFDFEFF68
:1017CB0012161EFC7B0820011312161EFD7B103017
:1017DB00000A12161EFE12161EFF7B20EC3382D55A
:1017EB0092D55013C3E43000069FFFE49EFEE42025
:1017FB0001039DFDE49CFCE4CBF8C201EC700CCF23
:10180B00CECDCCE824F8F870F38017C3EF33FFEE9E
:10181B0033FEED33FDEC33FCEB33FB994002FB0F56
:10182B00D8E9EB300105F8D0E0C448B201C0E00ABA
:10183B00EC4D4E4F78207B0070C2EAB53A0040BCAD
:10184B00C0E01218B3D0F0D0E0200104C4C0E0C453
:10185B00B201C0F0121642D0F0D5F0EB0216921284
:10186B0015F8172F5317A95817004C16FC4217AD34
:10187B004F17B54417B54917154317BB55179F4657
:10188B00179F45179F47195B5017042D17082E17E5
:10189B002B2B170C2317292019442A16C448000098
:1018AB0017233F3F3F00790AA2D5200314300509C7
:1018BB00B910020404B9080104A2D5200602500194
:1018CB00042002689202B539005034C0E07F20300A
:1018DB0003197F30A20272067205500F12190AC249
:1018EB0002C206C205C2087F30800F300503E9C073
:1018FB00E0121659300503D0E0F9D0E0B539CC3001
:10190B0005177F30B9100C1216597F583004077F1A
:10191B00788003B908031216593002057F2D021681
:10192B00597F202008F87F2B2006F322920280CFCC
:10193B00286E756C6C2900D20112161E3001F8C28C
:10194B0001783930D50108F60216C42D5043495899
:10195B0012161E2403B405004001E490195693128D
:10196B00164A743A12164AD2037539040217A902A1
:10197B00160000011800011900021A0000C109C16C
:10198B000CC10DC10AC10B011000011100011200A5
:10199B0001150002130000105500000000000000AC
:1019AB0000000000000000000061A00044000000E7
:1019BB00000000000000000000000000000000001C
:1019CB00000000000000000000000000000000000C
:1019DB0000000000000000000000000000000000FC
:1019EB0000000000000000000000000000000000EC
:1019FB0000000000000000000000000000000000DC
:101A0B0000000000000000000000000000000000CB
:101A1B0000000000000000000000000000000000BB
:101A2B0000000000000000000000000000000000AB
:101A3B00000000000000000000000000000000009B
:101A4B00000000000000000000000000000000008B
:101A5B00000000000000000000000000000000007B
:101A6B00000000000000000000000000000000006B
:101A7B00000000000000000000000000000000005B
:101A8B00000000000000000000000000000000004B
:101A9B00000000000000000000000000000000003B
:101AAB00000000000000000000000000000000002B
:101ABB00000000000000000000000000000000001B
:101ACB00000000000000000000000000000000000B
:101ADB0000000000000000000000000000000000FB
:101AEB0000000000000000000000000000000000EB
:101AFB0000000000000000000000000000000000DB
:101B0B0000000000000000000000000000000000CA
:101B1B0000000000000000000000000000000000BA
:101B2B0000000000000000000000000000000000AA
:101B3B00000000000000000000000000000000009A
:101B4B000000000000000000000000000050003406
:101B5B00000000000000000000000000000000007A
:101B6B004201E4000A015301024E006D01540102CF
:101B7B004C0000026700000269000000E4F550F51C
:101B8B0051F573F574F56FF570F565F566F56DF553
:101B9B006EF571F572120076D2991224847BFF7A5E
:101BAB0000798F1216801225FC8F287BFF7A007923
:101BBB00A285282C1216807BFF7A0079B985282CF8
:101BCB00121680E55145506003021C77752CFF758A
:101BDB002D00752ED185282FFB7A00795212167A9B
:101BEB00752C00752D00752E527B007A00795512DD
:101BFB0022577B007A0079551200168E658F66E5A9
:101C0B0070C4F8540FC868FFE56FC454F048FE74F5
:101C1B00442FF974003EFA7B01C0031B8B2C752DEE
:101C2B0000752E52D003122257D3E5669410E5654A
:101C3B0064809480403674082574F574E43573F52C
:101C4B00730570E5707002056FE4F565F566FE7F50
:101C5B0010FDFB7A007955121408752C00752D00B8
:101C6B00752E527B007A007955122257E55164018B
:101C7B004550706E752CFF752D00752ED485282F51
:101C8B00FB7A00795212167A752C00752D00752E81
:101C9B00527B007A0079551222577B007A007955D6
:101CAB001200168E658F66D3E5669410E565648029
:101CBB009480402E74082574F574E43573F573E441
:101CCB00F565F566FE7F10FDFB7A00795512140859
:101CDB00752C00752D00752E527B007A00795512EC
:101CEB0022577B007A007955AD74122357E5706447
:101CFB0004456F701D78247C007D017B017A00798F
:101D0B0064FE7F101212907B017A007924E4FD129D
:101D1B00235712262D122528021BA58F2D8E2C8DB5
:101D2B002B8C2AE47F4EFEFDFCAB2DAA2CA92BA8F5
:101D3B002AD31213CA5006752E01021E97E47FC4D4
:101D4B007E0AFDFCAB2DAA2CA92BA82AC31213CA01
:101D5B004015E47F5A7E0BFDFCA82AD31213CA5000
:101D6B0006752E02021E97E47F9A7E09FDFCAB2DB1
:101D7B00AA2CA92BA82AC31213CA4015E47F307EC4
:101D8B000AFDFCA82AD31213CA5006752E03021E95
:101D9B0097E47F277E06FDFCAB2DAA2CA92BA82A46
:101DAB00C31213CA4015E47FBD7E06FDFCA82AD3DF
:101DBB001213CA5006752E04021E97E47F717E071C
:101DCB00FDFCAB2DAA2CA92BA82AC31213CA4015B4
:101DDB00E47F077E08FDFCA82AD31213CA500675B0
:101DEB002E05021E97E47F7C7E08FDFCAB2DAA2CF2
:101DFB00A92BA82AC31213CA4014E47F127E09FD33
:101E0B00FCA82AD31213CA5005752E06807EE47FD8
:101E1B00BE7E06FDFCAB2DAA2CA92BA82AC3121340
:101E2B00CA4014E47F547E07FDFCA82AD31213CAC0
:101E3B005005752E078055E47F4E7E05FDFCAB2DBE
:101E4B00AA2CA92BA82AC31213CA4014E47FE47E40
:101E5B0005FDFCA82AD31213CA5005752E08802C39
:101E6B00E47F8B7E04FDFCAB2DAA2CA92BA82AC3E7
:101E7B001213CA4014E47F217E05FDFCA82AD3125D
:101E8B0013CA5005752E098003E4F52EAF2E228E52
:101E9B002F8F308D318B32AB33AA34A9351212B65A
:101EAB007003021F73F536C3648094A04009D3E519
:101EBB0036648094FE4003753620E531D394784028
:101ECB0003021F5FAF36EF3395E0FE75F064E5322A
:101EDB00A42FF582E5F03EF583E58224B3F582E588
:101EEB00833426F583E493FDE531131313541F2537
:101EFB0030F538E4352FF537853882F583C083C04C
:101F0B0082E5315407FCE47EFFA804088005CEC3AC
:101F1B0013CE13D8F9F4FFEEF4FEE05EFEA3E05F00
:101F2B00FFD082D083EEF0A3EFF085388285378324
:101F3B00C083C082EDFEE4A804088005CEC313CE97
:101F4B0013D8F9FFE04EFEA3E04FFFD082D083EE13
:101F5B00F0A3EFF074012535F535E43534F5347421
:101F6B00062531F531021EA22212007685716D8590
:101F7B00726EC3E56E9411E56D648094804003022C
:101F8B002039E56EC4F8540FC868FFE56DC454F0F2
:101F9B0048FE74442FF58274003EF583E582256676
:101FAB00F582E5833565F583E0FF74342566F582AC
:101FBB0074003565F583EFF07E007F107D007B01AB
:101FCB007A00792412140878247C007D017B017A35
:101FDB000079347E007F1012129078247C007D01F2
:101FEB007B017A0079347E007F101215AE7E007F64
:101FFB0010C006C0077F8EC0077B017A00792412C0
:10200B00001674142FF974003EFA7B01D005D0072B
:10201B00D00612234C7408256CF56CE4356BF56B0C
:10202B00056EE56E6003021F7D056D021F7D22129A
:10203B000076E4F565F56674642566F58274003503
:10204B0065F583E0FF74342566F58274003565F51C
:10205B0083EFF00566E566700205656411456570F2
:10206B00D67E007F107D007B017A00792412140844
:10207B0078247C007D017B017A0079347E007F100F
:10208B0012129078247C007D017B017A0079347EDA
:10209B00007F101215AE7E007F10C006C0077F8E2A
:1020AB00C0077B017A00792412001674142FF9747F
:1020BB00003EFA7B01D005D007D00612234C7408E2
:1020CB00256CF56CE4356BF56B22C0E0C0F0C0837A
:1020DB00C082C0D075D000C000C001C002C003C018
:1020EB0004C005C006C00775A720E5F854F0F444FA
:1020FB000F52F8AF9BEF30E34DE5106031E5A120B7
:10210B00E02C300A13851482851383E5A3F00514A4
:10211B00E51470070513800385A327D5100D300C2C
:10212B0005300902D2FA1225A08003851012E511A1
:10213B00601430F911300B09A815E2F5A3051580D1
:10214B000375A3001511D007D006D005D004D0031A
:10215B00D002D001D000D0D0D082D083D0F0D0E04C
:10216B0032787FE4F6D8FD7581740221B302263DE7
:10217B00E493A3F8E493A34003F68001F208DFF4A1
:10218B008029E493A3F85407240CC8C333C4540F19
:10219B004420C8834004F456800146F6DFE4800BEC
:1021AB00010204081020408090197AE47E019360AC
:1021BB00BCA3FF543F30E509541FFEE493A3600119
:1021CB000ECF54C025E060A840B8E493A3FAE49383
:1021DB00A3F8E493A3C8C582C8CAC583CAF0A3C831
:1021EB00C582C8CAC583CADFE9DEE780BEC0E0C0CE
:1021FB00F0C083C082C0D075D000C000C001C00247
:10220B00C003C004C005C006C00753C87F53C8FB3A
:10221B00E518B401127518027F008519267B02E4BC
:10222B00FDFC1222AF800AE518B40305C2A675188F
:10223B0000D007D006D005D004D003D002D001D0F7
:10224B0000D0D0D082D083D0F0D0E0328B298A2A34
:10225B00892B8B2F8A308931AB29052BE52BAA2AA9
:10226B007002052A14F91212B670ED74FF252BF5C6
:10227B002B74FF352AF52AAB2C052EE52EAA2D70D3
:10228B0002052D14F91212B6FFAB29052BE52BAA6B
:10229B002A7002052A14F9EF1215D670DAAB2FAAA1
:1022AB0030A931228526108526118526128F158C93
:1022BB00138D14EB13920AEBA2E1920BAFA775A748
:1022CB0020200D031225EB439A0453F80F539BEF79
:1022DB00439A08300C05300902C2FA30F915E511A2
:1022EB006011300B09A815E2F5A305158003E4F581
:1022FB00A315118FA722C0E0C083C082C0D075D0B8
:10230B000853987FE54F254DF54DE54E354CF54C73
:10231B0025E0FFE433FE74C02FF58274093EF5838C
:10232B00E493F54A740193F54B75A730AF4B8F844B
:10233B008F89AF4A8F858F8AD0D0D082D083D0E05F
:10234B00321214087B017A007924AD6C8B2A8A2B0C
:10235B00892C8D2DE4F52E7E007F141225DA7E005C
:10236B007F14852A33852B34852C35AB2E7D0412B7
:10237B001E9AE52D252EFF7B017A007914122395E9
:10238B00052EE52EC3940840CE228F2F8B308A3139
:10239B0089327F801224C98F33E52F04FF12245812
:1023AB008F34E4FFAB30AA31A9328F8275830012D0
:1023BB0012CFFE74352FF8A6060FBF10E7E4F545D4
:1023CB00F546FB7A0079337D140223D78B478A4875
:1023DB008949E51870FC7518018D19E4FFEFC39D51
:1023EB005018AB47AA48A9498F827583001212CFA8
:1023FB00FE74002FF8EEF20F80E3AFA7E4F5A7759C
:10240B00CFFF75CEF4D2A643C8048FA72285A72889
:10241B0012267412000612267E1226881226C3126A
:10242B00265A12261D1226A31226C71226CB1226B7
:10243B00AA1226921225C71225431224A712255C35
:10244B0012266712258A1226CF8528A722EF540F52
:10245B00C454F0FEEF54F0C4540F4EFF543325E038
:10246B0025E0FEEF54CC1313543F4EFF545525E09B
:10247B00FEEF54AAC3134EFF221225748E298F2A06
:10248B00122574C3EF952AFFEE9529FEC3EF941E18
:10249B00EE94005006E554640160E52275A710E543
:1024AB009854045398FB75A5FE75A46875A3FE7527
:1024BB00A26875A3FE75A2684398044298228F47C1
:1024CB00122574C3EF9517FDEE9516FCD3ED94C84A
:1024DB00EC940040074347408E168F17AF4722AB53
:1024EB0007AA061225748F828E83122574C3EF956B
:1024FB0082FFEE9583FEC3EF9BEE9A40ED22D2EC6A
:10250B0030EDFDC2EDAFBDAEBE7C0C7DE41213DB36
:10251B00E4FB7A04F9F8121338121D26228F29E5F1
:10252B0029B40403121F74E529B4020B056EE56E82
:10253B007002056D12203A22E59154045391FB75FC
:10254B0095F87594067593F875920643910442912C
:10255B0022E4F5A7758E0A75A71075A601F5A77568
:10256B00892243881043884022AFA775A71053E6F2
:10257B007FAD1BAC1A43E6808FA7AE04AF05227567
:10258B00E68275F30475A71075EE8275ED04E4F51C
:10259B00A775A86022751803AFA7E4F5A775CFFF41
:1025AB0075CEFC43C8048FA722BF0A083099FDC221
:1025BB009975990D3099FDC2998F9922AF885388DF
:1025CB00AF758D96EF5440FEEF54104E428822E4C7
:1025DB00FDEF2DF582E43EF583E4F00DBD10F22204
:1025EB00E5A1A2E6920CE5F8540C24FF9209D20D5A
:1025FB0022100E0B12002EBF0D027F0A0226BFAF58
:10260B001C22C0E053917F051BE51B7002051AD0FD
:10261B00E03275BB0D75DF3F75BC0875B98143E8BA
:10262B0080221225098F29EF600512250980F8AF4A
:10263B002922122418D2A2D2AF12264C121B878049
:10264B00FEC2A6D2B47F0A7E001224EA020076E410
:10265B00F5A775E34075E10375E2032275A20B4301
:10266B00A14053F8F343F80122E4F5A77597DE7503
:10267B0097AD2275A57175F27D75D58E2275A64124
:10268B0075A72075CC0922E4F5A9E5A930E7FB2253
:10269B003098FDAF99C2982275A73075918222E4CC
:1026AB00F5A775D180227550007551013275500018
:1026BB00755100321225B42275F49C227593822237
:1026CB0075888022439810220020505020C06060F3
:1026DB001040000000000000702070F810F830F877
:1026EB0070700000080080707070F070E0F8F87087
:1026FB008870388880888870F070F078F8888888BF
:10270B008888F870007020004000800008003000BE
:10271B0080201080600000000000000040000000DE
:10272B00000000302060000000000000002050502E
:10273B0078C890202020202000000000886088109E
:10274B00308040088888606010004088088888883E
:10275B00908080888820109080D88888888888808E
:10276B00208888888888084000105000200080004E
:10277B000800487880000080200000000000000066
:10278B00400000000000004020104000000000004E
:10279B00002050F88010A0404010A8200000000836
:1027AB009820082050F080108888606020F820085E
:1027BB000888888088808080882010A080A8C8889E
:1027CB0088888880208888885088104080108800EE
:1027DB001070B07068704088B060309020D0B070CE
:1027EB00F068B070E08888888888F8402010A800CE
:1027FB00000000000020005070204000401070F8D6
:10280B0000F80010A82010109008F020707800003D
:10281B00400010106888F08088F0F0B8F82010C0E5
:10282B0080A8A888F088F070208888A820502040C5
:10283B00401000000008C8809888E088C82010A0CD
:10284B0020A8C8888898C8804088888850881080BD
:10285B002008100000000000000000F80840A8004D
:10286B004010A82060000020C8202008F8088840ED
:10287B008808606020F82020A8F8888088808088ED
:10288B00882010A08088988880A8A008208888A815
:10289B0050204040201000000078888088F8407855
:1028AB00882010C020A88888F0788070408888A87D
:1028BB002078204020100000000000000000005095
:1028CB00F098900020202020200060408820408835
:1028DB00108888408810602010004000A8888888E5
:1028EB00908080888820909080888888809090083D
:1028FB00208850A88820804010100000008888880D
:10290B0088804008882090A02088888880088008CC
:10291B00489850A8500840402010000000000000CC
:10292B00002000502018680010400000400060801C
:10293B007070F8701070704070600040080080205C
:10294B007088F070E0F8807088706088F888887004
:10295B00806888F0207020508820F870087000FC88
:10296B000078F07078704070887060907088887014
:10297B00800880F0306820508870F83020600000AC
:10298B00000000000000000000000000000000003C
:10299B00000000000000000000000000000000002C
:1029AB00000000000000000000000000000000001C
:1029BB00000000000000000000000000000000000C
:1029CB0000000000000000000000000000000000FC
:1029DB0000000000000000000000000000000000EC
:0829EB000000000000000000E4
:00000001FF
